{
  "transactions": [
    {
      "hash": "0x4bf72a1dfaf67de4d87869dc53a32d72be8a5a02e4f095316ce6b0e5356b877c",
      "transactionType": "CALL",
      "contractName": null,
      "contractAddress": "0x194d903d7933ea864b7aaf32dbacdb0307a423ea",
      "function": "transfer(address,address)",
      "arguments": [
        "0x17592b178C2e38Ce0930828593610C6E79aBefD6",
        "0x4aa4E01416fc957117Eb3863149c7154e88a2833"
      ],
      "transaction": {
        "from": "0x4aa4e01416fc957117eb3863149c7154e88a2833",
        "to": "0x194d903d7933ea864b7aaf32dbacdb0307a423ea",
        "gas": "0x13fcb",
        "value": "0x0",
        "input": "0xba45b0b800000000000000000000000017592b178c2e38ce0930828593610c6e79abefd60000000000000000000000004aa4e01416fc957117eb3863149c7154e88a2833",
        "nonce": "0xb",
        "chainId": "0xaa36a7",
        "authorizationList": [
          {
            "chainId": "0xaa36a7",
            "address": "0x7a958a3b421295ce3ea5c7b4840e2f44dbc09c46",
            "nonce": "0x5",
            "yParity": "0x1",
            "r": "0xb25b5f3ed659aa49f1e25cdc155bf0b544168239b94e6f4048eda08ffba45587",
            "s": "0x3060a912153beafd85f93721ba7b6198af2ac258665efcc7a01dce23f3bec8f0"
          }
        ]
      },
      "additionalContracts": [],
      "isFixedGasLimit": false
    }
  ],
  "receipts": [
    {
      "status": "0x1",
      "cumulativeGasUsed": "0xbda18a",
      "logs": [
        {
          "address": "0x17592b178c2e38ce0930828593610c6e79abefd6",
          "topics": [
            "0xddf252ad1be2c89b69c2b068fc378daa952ba7f163c4a11628f55a4df523b3ef",
            "0x000000000000000000000000194d903d7933ea864b7aaf32dbacdb0307a423ea",
            "0x0000000000000000000000004aa4e01416fc957117eb3863149c7154e88a2833"
          ],
          "data": "0x0000000000000000000000000000000000000000000000056bc75e2d63100000",
          "blockHash": "0xe27dff0282b4bbe56bfa9c9ccc782166b194ac40ac2bbc6a3b205ea3f3073985",
          "blockNumber": "0x90c828",
          "blockTimestamp": "0x68fcfef8",
          "transactionHash": "0x4bf72a1dfaf67de4d87869dc53a32d72be8a5a02e4f095316ce6b0e5356b877c",
          "transactionIndex": "0x39",
          "logIndex": "0x52",
          "removed": false
        }
      ],
      "logsBloom": "0x00000000000000080000000000000000000000000000000000000080000000000000000000000000000000000200080000000000000000000000000000000000000000000000000000020008000000001000000000000000000000000000000000000000000000000000000000000000000000000000000000200010000000000000000000000000000000000000000000000000000000000000000000000000000000000000000000020000000000000000000000000000000000000000000000000002004000000000000000000000000000000000000000000000000000000000000000000000000000000000000000000000000000000000000000000000",
      "type": "0x4",
      "transactionHash": "0x4bf72a1dfaf67de4d87869dc53a32d72be8a5a02e4f095316ce6b0e5356b877c",
      "transactionIndex": "0x39",
      "blockHash": "0xe27dff0282b4bbe56bfa9c9ccc782166b194ac40ac2bbc6a3b205ea3f3073985",
      "blockNumber": "0x90c828",
      "gasUsed": "0xe787",
      "effectiveGasPrice": "0xf424a",
      "from": "0x4aa4e01416fc957117eb3863149c7154e88a2833",
      "to": "0x194d903d7933ea864b7aaf32dbacdb0307a423ea",
      "contractAddress": null
    }
  ],
  "libraries": [],
  "pending": [],
  "returns": {},
  "timestamp": 1761410809,
  "chain": 11155111,
  "commit": "b4622ff1"
}