{
  "transactions": [
    {
      "hash": "0x40d39cbd13f6091422907f5de9846309af9e78f4e704cff69246486a0588037e",
      "transactionType": "CALL",
      "contractName": null,
      "contractAddress": "0x194d903d7933ea864b7aaf32dbacdb0307a423ea",
      "function": "transfer(address,address)",
      "arguments": [
        "0x17592b178C2e38Ce0930828593610C6E79aBefD6",
        "0x4aa4E01416fc957117Eb3863149c7154e88a2833"
      ],
      "transaction": {
        "from": "0x4aa4e01416fc957117eb3863149c7154e88a2833",
        "to": "0x194d903d7933ea864b7aaf32dbacdb0307a423ea",
        "gas": "0xfc82",
        "value": "0x0",
        "input": "0xba45b0b800000000000000000000000017592b178c2e38ce0930828593610c6e79abefd60000000000000000000000004aa4e01416fc957117eb3863149c7154e88a2833",
        "nonce": "0x6",
        "chainId": "0xaa36a7",
        "authorizationList": [
          {
            "chainId": "0xaa36a7",
            "address": "0x7a958a3b421295ce3ea5c7b4840e2f44dbc09c46",
            "nonce": "0x1",
            "yParity": "0x1",
            "r": "0xd925675b899d123a9c29781ceec034bfc5842a11f480ff0a9aac573d5a1acef7",
            "s": "0xd8790898f88ece62098f513ff385ae1f83dcc39563c0b3f6b4afca3b542e8c6"
          }
        ]
      },
      "additionalContracts": [],
      "isFixedGasLimit": false
    }
  ],
  "receipts": [
    {
      "status": "0x1",
      "cumulativeGasUsed": "0x912bb9",
      "logs": [],
      "logsBloom": "0x00000000000000000000000000000000000000000000000000000000000000000000000000000000000000000000000000000000000000000000000000000000000000000000000000000000000000000000000000000000000000000000000000000000000000000000000000000000000000000000000000000000000000000000000000000000000000000000000000000000000000000000000000000000000000000000000000000000000000000000000000000000000000000000000000000000000000000000000000000000000000000000000000000000000000000000000000000000000000000000000000000000000000000000000000000000",
      "type": "0x4",
      "transactionHash": "0x40d39cbd13f6091422907f5de9846309af9e78f4e704cff69246486a0588037e",
      "transactionIndex": "0x76",
      "blockHash": "0x3a3028e0c54b91da42ba556556160ea176742767d297e3739feb6b5101d8f2b3",
      "blockNumber": "0x90c780",
      "gasUsed": "0xb6d0",
      "effectiveGasPrice": "0xf424c",
      "from": "0x4aa4e01416fc957117eb3863149c7154e88a2833",
      "to": "0x194d903d7933ea864b7aaf32dbacdb0307a423ea",
      "contractAddress": null
    }
  ],
  "libraries": [],
  "pending": [],
  "returns": {},
  "timestamp": 1761408782,
  "chain": 11155111,
  "commit": "b4622ff1"
}