{
  "transactions": [
    {
      "hash": null,
      "transactionType": "CALL",
      "contractName": null,
      "contractAddress": "0x194d903d7933ea864b7aaf32dbacdb0307a423ea",
      "function": "transfer(address,address)",
      "arguments": [
        "0x17592b178C2e38Ce0930828593610C6E79aBefD6",
        "0x4aa4E01416fc957117Eb3863149c7154e88a2833"
      ],
      "transaction": {
        "from": "0x4aa4e01416fc957117eb3863149c7154e88a2833",
        "to": "0x194d903d7933ea864b7aaf32dbacdb0307a423ea",
        "gas": "0x13fcb",
        "value": "0x0",
        "input": "0xba45b0b800000000000000000000000017592b178c2e38ce0930828593610c6e79abefd60000000000000000000000004aa4e01416fc957117eb3863149c7154e88a2833",
        "nonce": "0xb",
        "chainId": "0xaa36a7",
        "authorizationList": [
          {
            "chainId": "0xaa36a7",
            "address": "0x7a958a3b421295ce3ea5c7b4840e2f44dbc09c46",
            "nonce": "0x5",
            "yParity": "0x1",
            "r": "0xb25b5f3ed659aa49f1e25cdc155bf0b544168239b94e6f4048eda08ffba45587",
            "s": "0x3060a912153beafd85f93721ba7b6198af2ac258665efcc7a01dce23f3bec8f0"
          }
        ]
      },
      "additionalContracts": [],
      "isFixedGasLimit": false
    }
  ],
  "receipts": [],
  "libraries": [],
  "pending": [],
  "returns": {},
  "timestamp": 1761410727,
  "chain": 11155111,
  "commit": "b4622ff1"
}